S00F00004C46525F4156522E73726563E9
S11300000C942A000C94C2060C94F5060C94400738
S11300100C9447000C948F070C9447000C944700F1
S11300200C9447000C9447000C9447000C94A607CA
S11300300C9447000C9447000C9447000C94470020
S11300400C9447000C9447000C9447000C94470010
S11300500C94470011241FBECFE5D8E0DEBFCDBF0E
S113006010E0A0E6B0E0E8E5F3E102C005900D92EF
S1130070AC37B107D9F720E0ACE7B0E001C01D927E
S1130080A23AB207E1F70E949B050C94AA090C94CA
S113009000003E9A379A86B1876086B9089597B171
S11300A0907E97B997B1892B87B9369A3699FECF46
S11300B084B195B10895BF92CF92DF92EF92FF92EF
S11300C00F931F93CF93DF931092A1001092A0007F
S11300D080917C00811131C00CE710E0C0E0D0E0D9
S11300E00F2EF7E0DF2EF02DEE24E394F12CB12C4B
S11300F0C12C8D2D8C1B0E944F004091A00050916B
S1130100A1002E2D3F2DF801729162918F01861767
S1130110970710F42B2D3C2D0C2E02C0220F331FF9
S11301200A94E2F7242B352B3093A1002093A000EE
S11301302196C830D105E9F632C0813081F50CE74B
S113014010E0C0E0D0E00F2EF7E0DF2EF02DEE241B
S1130150E394F12CB12CC12C8D2D8C1B0E944F00EB
S11301604091A0005091A1002E2D3F2DF8017291D5
S113017062918F016817790710F42B2D3C2D0C2EFA
S113018002C0220F331F0A94E2F7242B352B30933D
S1130190A1002093A0002196C830D105E9F6DF9193
S11301A0CF911F910F91FF90EF90DF90CF90BF9070
S11301B0089580919E0090919F0090939D0080935C
S11301C09C008091A0009091A100892B49F480911A
S11301D09C0090919D0090939F0080939E000895B1
S11301E08091A0009091A1008F3F910539F488E798
S11301F090E090939F0080939E0008958091A000CA
S11302009091A100499739F18091A0009091A100AB
S1130210099709F18091A0009091A1004197D9F02C
S11302208091A0009091A100C197A9F08091A000B5
S11302309091A1008137910571F08091A000909177
S1130240A1008136910539F08091A0009091A10020
S11302508336910539F488E790E090939F0080936A
S11302609E0008958091A0009091A1000B97F1F158
S11302708091A0009091A1004397C1F18091A000CA
S11302809091A1004B9791F18091A0009091A100D1
S11302900A9761F18091A0009091A100429731F1F9
S11302A08091A0009091A10083379105F9F080918D
S11302B0A0009091A1004D97C9F08091A000909169
S11302C0A1008736910591F08091A0009091A10042
S11302D00D9761F08091A0009091A100C99731F031
S11302E08091A0009091A100C39739F488E790E031
S11302F090939F0080939E0008958091A000909118
S1130300A1000F9799F08091A0009091A1004F97C0
S113031069F08091A0009091A100CF9739F080916D
S1130320A0009091A1008F37910539F488E790E0FF
S113033090939F0080939E0008958091A0009091D7
S1130340A100019739F486E490E090939F00809394
S11303509E0008958091A0009091A100039739F424
S11303608CE390E090939F0080939E000895809189
S1130370A0009091A100029769F08091A000909153
S1130380A100079739F08091A0009091A1008D3FC2
S1130390910539F48EE190E090939F0080939E0044
S11303A008958091A0009091A100069739F0809162
S11303B0A0009091A100893F910539F484E190E077
S11303C090939F0080939E0008958091A000909147
S11303D0A100049731F08091A0009091A1000E97A4
S11303E039F48FE090E090939F0080939E000895ED
S11303F08091A0009091A1008B3F910561F48FE062
S113040090E090939F0080939E0080917E008F5F88
S113041080937E0008958091A0009091A1000C9794
S113042039F48AE090E090939F0080939E000895B1
S11304308091A0009091A100833F910561F48AE02E
S113044090E090939F0080939E0080917E008F5F48
S113045080937E0008958091A0009091A100089758
S113046031F08091A0009091A1004C9739F485E07F
S113047090E090939F0080939E0008958091A00047
S11304809091A100873F910561F485E090E09093FD
S11304909F0080939E0080917E008F5F80937E00FA
S11304A008958091A0009091A100489729F410929A
S11304B09F0010929E0008958091A0009091A10049
S11304C0873E910551F410929F0010929E008091F6
S11304D07E008F5F80937E0008958091A0009091AC
S11304E0A1008E3E9105E9F18091A0009091A100B8
S11304F087379105B1F18091A0009091A1008636D3
S1130500910579F18091A0009091A100893991051C
S113051041F18091A0009091A1008E37910509F1DD
S11305208091A0009091A100CC97D9F08091A00077
S11305309091A1008C379105A1F08091A000909139
S1130540A100CE9771F08091A0009091A10087370F
S1130550910539F08091A0009091A1008E3E910503
S113056029F410929F0010929E0008958091A0009B
S11305709091A100409731F08091A0009091A1004A
S1130580C89739F48BEF9FEF90939F0080939E0060
S113059008958091A0009091A1008F3E910561F48F
S11305A08BEF9FEF90939F0080939E0080917E003D
S11305B08F5F80937E0008958091A0009091A100A8
S11305C0C09739F486EF9FEF90939F0080939E002D
S11305D008958091A0009091A1008F3C910561F451
S11305E086EF9FEF90939F0080939E0080917E0002
S11305F08F5F80937E0008958091A0009091A10068
S1130600809739F08091A0009091A10080379105E6
S113061039F481EF9FEF90939F0080939E0008959B
S11306208091A0009091A1008F3D910561F481EF2C
S11306309FEF90939F0080939E0080917E008F5F38
S113064080937E0008958091A0009091A10080364F
S1130650910539F08091A0009091A1008F39910506
S113066039F48CEE9FEF90939F0080939E00089541
S11306708091A0009091A1008034910571F0809147
S1130680A0009091A100803E910539F08091A000D6
S11306909091A1008F3B910539F482EE9FEF9093E6
S11306A09F0080939E0008958091A0009091A100E6
S11306B0803C910539F484EC9FEF90939F008093E4
S11306C09E0008958091A0009091A100803891052A
S11306D039F48AEB9FEF90939F0080939E000895D6
S11306E08091A0009091A100803F9105A9F0809194
S11306F0A0009091A100883F910571F08091A00025
S11307009091A1008C3F910539F08091A0009091C7
S1130710A1008E3F910539F488E89FEF90939F00E4
S113072080939E0008958091A0009091A100883D3F
S1130730910509F447C08091A0009091A100803DEB
S1130740910509F43FC08091A0009091A100883CDC
S11307509105C1F18091A0009091A100803591058F
S113076089F18091A0009091A1008834910551F104
S11307708091A0009091A1008E3C910519F1809187
S1130780A0009091A100883B9105E1F08091A00028
S11307909091A100863E9105A9F08091A0009091CE
S11307A0A100803B910571F08091A0009091A1007F
S11307B08C39910539F08091A0009091A1008C3C76
S11307C0910539F488E89FEF90939F0080939E00F1
S11307D008958091A0009091A1008839910551F16C
S11307E08091A0009091A1008039910519F1809128
S11307F0A0009091A10088389105E1F08091A000BB
S11308009091A1008C389105A9F08091A00090915D
S1130810A1008E38910571F08091A0009091A10003
S11308208638910539F08091A0009091A100863C12
S1130830910531F488E89FEF90939F0080939E0088
S1130840089580E090E00E94D10780E090E00E944B
S1130850D307AF9AAE98AD9AAC98089580E090E033
S11308600E94D10780E090E00E94D307AF98AE9A2F
S1130870AD9AAC98089580E090E00E94D10780E0A2
S113088090E00E94D307AF9AAE98AD98AC9A0895C1
S11308908F929F92AF92BF92CF92DF92EF92FF928C
S11308A00F931F93CF93DF93C0919E00D0919F002D
S11308B0C195C0938B000C2F0C2E000C110B609172
S11308C0880070918900600F711F772314F46F5FA3
S11308D07F4F7B01F594E794F0928900E0928800C1
S11308E06C2F0C2E000C770B880B990B0E948D0833
S11308F0209168003091690040916A0050916B002A
S11309000E943D094B015C01B701FF0C880B990B58
S11309100E948D0820916000309161004091620036
S1130920509163000E943D099B01AC01C501B401D3
S11309300E94E4076B017C0180918A009801281BC6
S1130940310987FD3395B901330F880B990B0E9448
S11309508D082091640030916500409166005091AB
S113096067000E943D099B01AC01C701B6010E94CA
S1130970E4076093840070938500809386009093CD
S11309808700C0938A000E94550870938300609387
S11309908200653B7105CCF0645B653B18F46093A1
S11309A07F0003C084EB80937F0084EB90E09093FE
S11309B08300809382000E942E0480917F008093A4
S11309C0810084EB8093800040C06C344FEF740747
S11309D0DCF42CE4822F861B853B18F480937F0083
S11309E003C084EB80937F008CE49FEF909383009B
S11309F0809382000E943B0484EB80938100809169
S1130A007F008093800021C09B012D543F4F233BE6
S1130A10310558F40E94210484EB80938100809175
S1130A2082008C548093800010C061507109633B34
S1130A30710558F40E94210484EB90918200282FC0
S1130A40291B2093810080938000DF91CF911F9117
S1130A500F91FF90EF90DF90CF90BF90AF909F9059
S1130A608F90089580E090E00E94D10780E090E0AC
S1130A700E94D307AF9AAE98AD9AAC9884EB90E0FD
S1130A800E94D10784EB90E00E94D307089580E090
S1130A9090E00E94D10780E090E00E94D307AF98D5
S1130AA0AE9AAD98AC9A84EB90E00E94D10784EBA7
S1130AB090E00E94D30708950E9447058FE891E0D3
S1130AC00197F1F700C0000080E090E00E94D10798
S1130AD080E090E00E94D307AF98AE98AD98AC98B0
S1130AE0089580E090E00E94D10780E090E00E94A9
S1130AF0D307AF9AAE98AD98AC9A80EA90E00E9482
S1130B00D10780EA90E00E94D307089580E090E046
S1130B100E94D10780E090E00E94D307AF98AE9A7C
S1130B20AD9AAC9880EA90E00E94D10780EA90E008
S1130B300E94D30708958C9A8D9AB99A8B988A98B3
S1130B40BA98A79AA69AA59AA49A8F9ABB9A0E9431
S1130B5049000E94D5070E94BD070E94C7070E9452
S1130B6021040E94320584EB90E00E94D10784EBBB
S1130B7090E00E94D3070E9432052FEF85EA9EE0A1
S1130B80215080409040E1F700C0000004E010E0F4
S1130B900F2EFEE1DF2EF02DE12CFF24F3940E94B2
S1130BA05B000E94D90080919E0090919F00843642
S1130BB0910551F080919E0090919F008C399F4F38
S1130BC0C9F4C02FD12F02C0C02FD12F0E945B00C7
S1130BD00E94D90080919E0090919F0084369105D7
S1130BE039F080919E0090919F008C399F4F11F4B1
S1130BF0219761F760919E0070919F00072E000C71
S1130C00880B990B0E948D0820E030E040E05FE300
S1130C100E94500881110BC00E9432058FEF93E2AD
S1130C2024EF815090402040E1F700C00000809103
S1130C30A0009091A100C79741F08091A0009091ED
S1130C40A1008C3E910509F094C00E9432050E94D7
S1130C505B000E94D9008DC0CD2DDE2D0E945B006B
S1130C600E94D9002197D1F726C00E945C052FEF7E
S1130C7083EC99E0215080409040E1F700C00000EF
S1130C800E9471052FEF87E893E121508040904046
S1130C90E1F700C0000080919E0090919F00409772
S1130CA054F00E945B000E94D90080919E009091B4
S1130CB09F004097B4F780919E0090919F008837E1
S1130CC0910599F280919E0090919F0088389F4FE2
S1130CD081F528C00E945C058FEF93EC29E08150D8
S1130CE090402040E1F700C000000E9486058FEF8D
S1130CF097E823E1815090402040E1F700C00000D4
S1130D0080919E0090919F00813F9F4F5CF40E94D0
S1130D105B000E94D90080919E0090919F00813FCA
S1130D209F4FACF380919E0090919F0088389F4F15
S1130D3089F20E9448048091810090E00E94D107CA
S1130D408091800090E00E94D30780917E00909172
S1130D507D00891303C010927E0006C0853620F002
S1130D60F0927C0010927E0080917E0080937D0042
S1130D7016CF80919E0090919F008837910509F0CD
S1130D80A1CF6ACF1F920F920FB60F9211248F93A7
S1130D909F938091980090919900892B51F48EB57E
S1130DA082608EBD81E090E09093990080939800DA
S1130DB015C08091980090919900019779F41EBC18
S1130DC08CB59DB59695879590939B0080939A00DA
S1130DD01DBC1CBC10929900109298009F918F9199
S1130DE00F900FBE0F901F9018951F920F920FB681
S1130DF00F9211242F933F934F935F938F939F935D
S1130E008091940090919500892B51F483B783606D
S1130E1083BF81E090E0909395008093940025C077
S1130E2080919400909195000197F9F413BE22B734
S1130E3040918E0050918F003FEF349FC001359F49
S1130E40900D1124820F911D880F991F880F991FEF
S1130E50909397008093960010928F0010928E00CA
S1130E6012BE10929500109294009F918F915F9101
S1130E704F913F912F910F900FBE0F901F90189597
S1130E801F920F920FB60F9211242F933F934F93FB
S1130E905F938F939F9394B780E4892784BF809155
S1130EA0900090919100892B51F485B5846085BDA3
S1130EB081E090E0909391008093900025C0809110
S1130EC09000909191000197F9F415BC24B54091DC
S1130ED08C0050918D003FEF349FC001359F900DE1
S1130EE01124820F911D880F991F880F991F9093C9
S1130EF093008093920010928D0010928C0014BC89
S1130F0010929100109290009F918F915F914F9158
S1130F103F912F910F900FBE0F901F9018951F9225
S1130F200F920FB60F9211248F939F9380918C0090
S1130F3090918D00019690938D0080938C009F91E9
S1130F408F910F900FBE0F901F9018951F920F92C4
S1130F500FB60F9211248F939F9380918E009091DE
S1130F608F00019690938F0080938E009F918F91B4
S1130F700F900FBE0F901F90189583B7886483BF9E
S1130F8083B7806283BF83B7816083BF089585B5CB
S1130F90886485BD85B5806285BD85B5816085BD64
S1130FA008958CBF089583BD089580B58F7B80BD5F
S1130FB0599810BC87E689B98AB188618AB980B525
S1130FC08E6880BD08955058BB27AA270E94FB074E
S1130FD00C9403090E94F50838F00E94FC0820F0E4
S1130FE039F49F3F19F426F40C94F2080EF4E095BA
S1130FF0E7FB0C94EC08E92F0E94140958F3BA1784
S1131000620773078407950720F079F4A6F50C941A
S113101036090EF4E0950B2EBA2FA02D0B01B90161
S113102090010C01CA01A0011124FF27591B99F05A
S1131030593F50F4503E68F11A16F040A22F232F66
S1131040342F4427585FF3CF469537952795A795B6
S1131050F0405395C9F77EF41F16BA0B620B730B5D
S1131060840BBAF09150A1F0FF0FBB1F661F771FCE
S1131070881FC2F70EC0BA0F621F731F841F48F483
S1131080879577956795B795F7959E3F08F0B0CF0C
S11310909395880F08F09927EE0F979587950895F3
S11310A00E94C80808F481E008950E945C086894CE
S11310B0B1110C94370908950E941C0988F09F57B8
S11310C098F0B92F9927B751B0F0E1F0660F771F68
S11310D0881F991F1AF0BA95C9F714C0B13091F05E
S11310E00E943609B1E008950C943609672F782FD1
S11310F08827B85F39F0B93FCCF386957795679523
S1131100B395D9F73EF490958095709561957F4F8E
S11311108F4F9F4F0895E89409C097FB3EF4909534
S11311208095709561957F4F8F4F9F4F9923A9F0BC
S1131130F92F96E9BB279395F6958795779567954B
S1131140B795F111F8CFFAF4BB0F11F460FF1BC08F
S11311506F5F7F4F8F4F9F4F16C0882311F096E922
S113116011C0772321F09EE8872F762F05C06623D0
S113117071F096E8862F70E060E02AF09A95660F89
S1131180771F881FDAF7880F9695879597F9089542
S1131190990F0008550FAA0BE0E8FEEF1616170684
S11311A0E807F907C0F012161306E407F50798F0EC
S11311B0621B730B840B950B39F40A2661F0232B05
S11311C0242B252B21F408950A2609F4A140A69581
S11311D08FEF811D811D089597F99F6780E870E066
S11311E060E008959FEF80EC089500240A94161699
S11311F0170618060906089500240A941216130601
S1131200140605060895092E0394000C11F488238E
S113121052F0BB0F40F4BF2B11F460FF04C06F5FAA
S11312207F4F8F4F9F4F089557FD9058440F551F80
S113123059F05F3F71F04795880F97FB991F61F054
S11312409F3F79F087950895121613061406551FCB
S1131250F2CF4695F1DF08C0161617061806991F37
S1131260F1CF86957105610508940895E894BB272C
S113127066277727CB0197F908950E9450090C94AB
S113128003090E94F50838F00E94FC0820F0952319
S113129011F00C94EC080C94F20811240C94370906
S11312A00E94140970F3959FC1F3950F50E0551FE8
S11312B0629FF001729FBB27F00DB11D639FAA27A7
S11312C0F00DB11DAA1F649F6627B00DA11D661FF6
S11312D0829F2227B00DA11D621F739FB00DA11D17
S11312E0621F839FA00D611D221F749F3327A00DD1
S11312F0611D231F849F600D211D822F762F6A2F6D
S113130011249F5750409AF0F1F088234AF0EE0FD1
S1131310FF1FBB1F661F771F881F91505040A9F7FE
S11313209E3F510580F00C94EC080C9437095F3F04
S1131330E4F3983ED4F3869577956795B795F7953A
S1131340E7959F5FC1F7FE2B880F911D96958795B2
S10B135097F90895F894FFCF0A
S1131358CDCCCC3D00007041666626405802580248
S10F136858025802580258025802C201F0
S9030000FC
